:1000000061C079C0C8C077C09AC075C074C073C0E1
:1000100072C071C071C06FC06EC06DC06CC00BC1CA
:100020000AC109C108C109C108C107C106C107C188
:1000300006C105C104C105C104C103C102C103C198
:1000400002C101C100C113C115C117C119C10CC141
:1000500011C113C115C108C10AC10FC111C104C129
:1000600006C108C10DC100C102C104C106C15CC204
:100070004FC247C23FC237C231C22DC22CC22BC2AF
:100080002AC229C268C269C26AC26BC26CC26DC28E
:100090006EC26FC270C271C272C273C274C275C2C4
:1000A00076C27CC27BC27AC279C278C277C276C27B
:1000B00075C274C27FC286C286C288C28AC28CC21E
:1000C0008EC292C211241FBECFEDCDBF10E0A0E6BC
:1000D000B0E0E8EAF6E002C005900D92A236B10762
:1000E000D9F710E0A2E6B0E001C01D92AB37B1072E
:1000F000E1F780D2D7C284CF1F920F920FB60F9232
:1001000011242F933F934F935F936F937F938F931C
:100110009F93AF93BF93EF93FF9382D0FF91EF91A3
:10012000BF91AF919F918F917F916F915F914F910F
:100130003F912F910F900FBE0F901F9018951F9217
:100140000F920FB60F9211242F933F934F935F930B
:100150006F937F938F939F93AF93BF93EF93FF938F
:100160008091640090916500019690936500809362
:1001700064004DD0FF91EF91BF91AF919F918F910E
:100180007F916F915F914F913F912F910F900FBE93
:100190000F901F9018951F920F920FB60F92112477
:1001A0000F900FBE0F901F901895809162008111E3
:1001B00006C0B5992AC01092630081E013C0813057
:1001C00051F480916300853000F1B5991EC0109202
:1001D000630082E007C0823041F4B59B16C01092E4
:1001E000630083E08093620010C0833061F48091EB
:1001F0006300853050F0B59B08C0109263001092E8
:10020000620081E008951092620080E0089580917C
:1002100063008F5F8093630008958091620008956A
:1002200017BA18BAE0917A00F0E0E431F10560F411
:10023000E15FFF4F0994BA9A07C0BB9A05C0BC9A08
:1002400003C0B99A01C0B89AE0917A00AE2FB0E02D
:10025000AA59BF4F8C918130B1F4F0E0E431F1053F
:1002600090F4ED5DFF4F0994BA9A84E00BC0BB9AFD
:1002700088E008C0BC9A80E105C0B99A82E002C05B
:10028000B89A81E088BB80917A008F5F843118F43E
:1002900080937A00089510927A00089519BE80E242
:1002A00085BB8BBF85B7877E806185BF85B7806240
:1002B00085BF85B7982F94688B7F8068F89495BF29
:1002C00085BF78948895F89485B78F7D85BF84E144
:1002D00089BF1BBE7894089520E030E0F901EA5907
:1002E000FF4F80832F5F3F4F24313105B9F70895C9
:1002F000F89480E0F1DF1092650010926400789429
:100300000895F89481E0E8DF10926500109264008F
:1003100078940895F89440916400509165009C0190
:10032000220F331F4217530728F0109265001092D6
:1003300064000BC0209164003091650028173907D4
:1003400010F081E001C080E0C7DF789408958091CB
:100350006000909161009C01369527953695279510
:10036000AC01E3E056954795EA95E1F72427352758
:1003700028273927AC01F5E056954795FA95E1F71E
:100380002427352733272695379522279695879555
:10039000282B392B3093610020936000C901089508
:1003A000FF920F931F93CF93DF938B01F8942091CB
:1003B0006400309165002817390710F478941AC04A
:1003C0001092650010926400C0E0D0E0FF24F39426
:1003D000BEDF0817190748F4FE01EA59FF4F808174
:1003E000813011F4108201C0F0822196C431D10510
:1003F00079F7E4CFDF91CF911F910F91FF9008958E
:10040000F894CEDF81E08093660078940895CF93CE
:10041000DF93EC01F89480E05FDF41E040936600F9
:100420002091640030916500CE0163E070E014D14A
:100430002817390728F0109265001092640031C027
:100440002091640030916500CE01880F991F281714
:10045000390758F04093690040936C0040936F0057
:1004600040937200409375001CC08091640090918D
:1004700065008C179D0758F04093680040936B000F
:1004800040936E0040937100409374000AC0409303
:10049000670040936A0040936D0040937000409362
:1004A00073007894DF91CF910895CF93DF93EC019F
:1004B000F89480E011DF81E0809366008091640011
:1004C00090916500BE01DAD06B30710548F5FB01F3
:1004D000E95CFF4F099481E08093750081E080938F
:1004E000740080936F0081E08093730080936E00AE
:1004F00080936A0081E08093720080936D00809306
:10050000690081E08093710080936C0080936800A3
:1005100081E08093700080936B008093670004C03B
:1005200010926500109264007894DF91CF91089545
:10053000CF93DF93EC01F89481E0CEDE80916400EC
:1005400090916500BE019AD06831710518F5FB01E4
:10055000EE5BFF4F09941092750010927400109298
:10056000730010927200109271001092700010923D
:100570006F0010926E0010926D0010926C0010923D
:100580006B0010926A00109269001092680010923D
:10059000670004C010926500109264007894DF91A7
:1005A000CF910895E82FF0E0E830F10510F5E65A14
:1005B000FF4F09949DDE88B3807E88BB2EDE8111BB
:1005C00018C06CCE9ECE8EEE92E0A4CE84EF91E069
:1005D0001ECF84EF91E069CF8CE291E0A9CF60E477
:1005E0007CE984EF91E0DCCE60E47CE984EF91E08B
:1005F00007CF08958FE187BB18BA14BA479A379886
:1006000082E08ABD83E083BF88E489BD12BE87ECA7
:1006100080BF1CBC8DE78DBD1FBC84E189BF789471
:1006200080E05ADEC0E0D0E011E02091640030911B
:100630006500C217D307C9F3812FB4DFC0916400EE
:10064000D0916500B2DD882381F31F5F177010928F
:10065000650010926400E9CF5527002480FF02C096
:10066000060E571F660F771F6115710521F09695CD
:100670008795009799F7952F802D0895AA1BBB1B8E
:1006800051E107C0AA1FBB1FA617B70710F0A61B92
:10069000B70B881F991F5A95A9F780959095BC01B3
:0806A000CD010895F894FFCF8D
:0206A80034120A
:00000001FF
