:1000000049C061C0B0C05FC082C05DC05CC05BC0A1
:100010005AC059C059C057C056C055C054C0F3C08B
:10002000F2C0F1C0F0C0F1C0F0C0EFC0EEC0EFC050
:10003000EEC0EDC0ECC0EDC0ECC0EBC0EAC0EBC060
:10004000EAC0E9C0E8C0FBC0FDC0FFC001C1F4C008
:10005000F9C0FBC0FDC0F0C0F2C0F7C0F9C0ECC0F1
:10006000EEC0F0C0F5C0E8C0EAC0ECC0EEC06EC2A1
:1000700065C261C25DC259C255C251C250C24FC2AF
:100080004EC24DC26FC276C276C278C27AC27CC2FC
:1000900080C284C211241FBECFEDCDBF10E0A0E608
:1000A000B0E0E8E5F6E002C005900D92A236B10797
:1000B000D9F710E0A2E6B0E001C01D92AB37B1075E
:1000C000E1F770D2C7C29CCF1F920F920FB60F926A
:1000D00011242F933F934F935F936F937F938F934D
:1000E0009F93AF93BF93EF93FF9382D0FF91EF91D4
:1000F000BF91AF919F918F917F916F915F914F9140
:100100003F912F910F900FBE0F901F9018951F9247
:100110000F920FB60F9211242F933F934F935F933B
:100120006F937F938F939F93AF93BF93EF93FF93BF
:100130008091640090916500019690936500809392
:1001400064004DD0FF91EF91BF91AF919F918F913E
:100150007F916F915F914F913F912F910F900FBEC3
:100160000F901F9018951F920F920FB60F921124A7
:100170000F900FBE0F901F90189580916200811113
:1001800006C0B5992AC01092630081E013C0813087
:1001900051F480916300853000F1B5991EC0109232
:1001A000630082E007C0823041F4B59B16C0109214
:1001B000630083E08093620010C0833061F480911B
:1001C0006300853050F0B59B08C010926300109218
:1001D000620081E008951092620080E008958091AD
:1001E00063008F5F8093630008958091620008959B
:1001F00017BA18BAE0917A00F0E0E431F10560F442
:10020000E15FFF4F0994BA9A07C0BB9A05C0BC9A38
:1002100003C0B99A01C0B89AE0917A00AE2FB0E05D
:10022000AA59BF4F8C918130B1F4F0E0E431F1056F
:1002300090F4ED5DFF4F0994BA9A84E00BC0BB9A2D
:1002400088E008C0BC9A80E105C0B99A82E002C08B
:10025000B89A81E088BB80917A008F5F843118F46E
:1002600080937A00089510927A00089519BE80E272
:1002700085BB8BBF85B7877E806185BF85B7806270
:1002800085BF85B7982F94688B7F8068F89495BF59
:1002900085BF78948895F89485B78F7D85BF84E174
:1002A00089BF1BBE7894089520E030E0F901EA5937
:1002B000FF4F80832F5F3F4F24313105B9F70895F9
:1002C000F89480E0F1DF1092650010926400789459
:1002D0000895F89481E0E8DF1092650010926400C0
:1002E00078940895F89440916400509165009C01C1
:1002F000220F331F4217530728F010926500109207
:1003000064000BC020916400309165002817390704
:1003100010F081E001C080E0C7DF789408958091FB
:100320006000909161009C01369527953695279540
:10033000AC01E3E056954795EA95E1F72427352788
:1003400028273927AC01F5E056954795FA95E1F74E
:100350002427352733272695379522279695879585
:10036000282B392B3093610020936000C901089538
:10037000FF920F931F93CF93DF938B01F8942091FB
:100380006400309165002817390710F478941AC07A
:100390001092650010926400C0E0D0E0FF24F39456
:1003A000BEDF0817190748F4FE01EA59FF4F8081A4
:1003B000813011F4108201C0F0822196C431D10540
:1003C00079F7E4CFDF91CF911F910F91FF900895BE
:1003D000F894CEDF81E08093660078940895CF93FF
:1003E000DF93EC01F89480E05FDF41E0409366002A
:1003F0002091640030916500CE0163E070E004D18B
:100400002817390728F0109265001092640025C063
:100410002091640030916500CE01880F991F281744
:10042000390738F04093690040936C0040936F00A7
:1004300014C080916400909165008C179D0738F07E
:100440004093680040936B0040936E0006C0409359
:10045000670040936A0040936D007894DF91CF91DC
:100460000895CF93DF93EC01F89480E01DDF41E025
:100470004093660040936D0040936E0040936F0080
:100480002091640030916500CE0163E070E0BCD043
:100490002817390728F010926500109264001FC0D9
:1004A0002091640030916500CE01880F991F2817B4
:1004B000390728F04093690040936C0010C0809188
:1004C0006400909165008C179D0728F040936800A8
:1004D00040936B0004C04093670040936A00789497
:1004E000DF91CF910895CF93DF93EC01F89480E0F2
:1004F000DBDE81E08093660080936D0080936E0068
:1005000080936F008091640090916500BE018ED051
:100510006B307105B8F4FB01E95CFF4F099481E091
:1005200080936C0081E080936B0081E080936A008F
:1005300081E08093690081E08093680081E080938E
:10054000670004C010926500109264007894DF91F7
:10055000CF910895E82FF0E0E830F10510F5EE5B5B
:10056000FF4F0994ADDE88B3807E88BB3EDE8111EB
:1005700018C07CCEAECE8EEE92E0B4CE84EF91E089
:100580002ECF84EF91E06DCF60E47CE984EF91E0C1
:10059000EFCE60E47CE984EF91E01ACF84EF91E044
:1005A000A2CF08958FE187BB18BA14BA479A37983B
:1005B00082E08ABD83E083BF88E489BD12BE87ECF8
:1005C00080BF1CBC8DE78DBD1FBC84E189BF7894C2
:1005D00080E06ADEC0E0D0E011E02091640030915C
:1005E0006500C217D307C9F3812FB4DFC09164003F
:1005F000D0916500C2DD882381F31F5F17701092D0
:10060000650010926400E9CF5527002480FF02C0E6
:10061000060E571F660F771F6115710521F096951D
:100620008795009799F7952F802D0895AA1BBB1BDE
:1006300051E107C0AA1FBB1FA617B70710F0A61BE2
:10064000B70B881F991F5A95A9F780959095BC0103
:08065000CD010895F894FFCFDD
:0206580034125A
:00000001FF
